{
  "contractName": "SimpleStorage",
  "abi": [
    {
      "anonymous": false,
      "inputs": [
        {
          "indexed": false,
          "name": "value",
          "type": "uint256"
        }
      ],
      "name": "LogChanged",
      "type": "event"
    },
    {
      "constant": false,
      "inputs": [
        {
          "name": "x",
          "type": "uint256"
        }
      ],
      "name": "set",
      "outputs": [],
      "payable": false,
      "stateMutability": "nonpayable",
      "type": "function"
    },
    {
      "constant": true,
      "inputs": [],
      "name": "get",
      "outputs": [
        {
          "name": "",
          "type": "uint256"
        }
      ],
      "payable": false,
      "stateMutability": "view",
      "type": "function"
    }
  ],
  "bytecode": "0x608060405234801561001057600080fd5b50610116806100206000396000f3006080604052600436106049576000357c0100000000000000000000000000000000000000000000000000000000900463ffffffff16806360fe47b114604e5780636d4ce63c146078575b600080fd5b348015605957600080fd5b5060766004803603810190808035906020019092919050505060a0565b005b348015608357600080fd5b50608a60e1565b6040518082815260200191505060405180910390f35b806000819055507fb373099dbae81a8d7edbcfc2cea14b6dd2c444fb99cf4fd32859a755e202aa77816040518082815260200191505060405180910390a150565b600080549050905600a165627a7a7230582043c168a4f84806fc604b7c9d0f854465b65087ce5f833ea8ab2d6df67e1bf7c30029",
  "source": "pragma solidity ^0.4.18;\n\ncontract SimpleStorage {\n  uint storedData;\n\n  event LogChanged(uint value);\n\n  function set(uint x) public {\n    storedData = x;\n    emit LogChanged(x);\n  }\n\n  function get() public view returns (uint) {\n    return storedData;\n  }\n}\n",
  "sourcePath": "/home/terence/DAPPS/reactexample/contracts/SimpleStorage.sol",
  "compiler": {
    "name": "solc",
    "version": "0.4.24+commit.e67f0147.Emscripten.clang"
  },
  "schemaVersion": "2.0.1",
  "updatedAt": "2018-07-30T06:25:57.921Z"
}