{
  "contractName": "AppStore",
  "abi": [
    {
      "constant": true,
      "inputs": [],
      "name": "count",
      "outputs": [
        {
          "name": "",
          "type": "uint256"
        }
      ],
      "payable": false,
      "stateMutability": "view",
      "type": "function"
    },
    {
      "constant": true,
      "inputs": [
        {
          "name": "",
          "type": "uint256"
        }
      ],
      "name": "products",
      "outputs": [
        {
          "name": "name",
          "type": "string"
        },
        {
          "name": "price",
          "type": "uint256"
        }
      ],
      "payable": false,
      "stateMutability": "view",
      "type": "function"
    },
    {
      "constant": true,
      "inputs": [],
      "name": "owner",
      "outputs": [
        {
          "name": "",
          "type": "address"
        }
      ],
      "payable": false,
      "stateMutability": "view",
      "type": "function"
    },
    {
      "inputs": [],
      "payable": false,
      "stateMutability": "nonpayable",
      "type": "constructor"
    },
    {
      "constant": false,
      "inputs": [
        {
          "name": "id",
          "type": "uint256"
        },
        {
          "name": "name",
          "type": "string"
        },
        {
          "name": "price",
          "type": "uint256"
        }
      ],
      "name": "addProduct",
      "outputs": [
        {
          "name": "successful",
          "type": "bool"
        }
      ],
      "payable": false,
      "stateMutability": "nonpayable",
      "type": "function"
    }
  ],
  "bytecode": "0x6060604052341561000f57600080fd5b336000806101000a81548173ffffffffffffffffffffffffffffffffffffffff021916908373ffffffffffffffffffffffffffffffffffffffff1602179055506104178061005e6000396000f300606060405260043610610062576000357c0100000000000000000000000000000000000000000000000000000000900463ffffffff16806306661abd146100675780634268ff2d146100905780637acc0b20146101175780638da5cb5b146101d7575b600080fd5b341561007257600080fd5b61007a61022c565b6040518082815260200191505060405180910390f35b341561009b57600080fd5b6100fd600480803590602001909190803590602001908201803590602001908080601f01602080910402602001604051908101604052809392919081815260200183838082843782019150505050505091908035906020019091905050610232565b604051808215151515815260200191505060405180910390f35b341561012257600080fd5b61013860048080359060200190919050506102fe565b60405180806020018381526020018281038252848181546001816001161561010002031660029004815260200191508054600181600116156101000203166002900480156101c75780601f1061019c576101008083540402835291602001916101c7565b820191906000526020600020905b8154815290600101906020018083116101aa57829003601f168201915b5050935050505060405180910390f35b34156101e257600080fd5b6101ea610321565b604051808273ffffffffffffffffffffffffffffffffffffffff1673ffffffffffffffffffffffffffffffffffffffff16815260200191505060405180910390f35b60025481565b60008060009054906101000a900473ffffffffffffffffffffffffffffffffffffffff1673ffffffffffffffffffffffffffffffffffffffff163373ffffffffffffffffffffffffffffffffffffffff1614151561028f57600080fd5b6040805190810160405280848152602001838152506001600086815260200190815260200160002060008201518160000190805190602001906102d3929190610346565b5060208201518160010155905050600260008154809291906001019190505550600190509392505050565b600160205280600052604060002060009150905080600001908060010154905082565b6000809054906101000a900473ffffffffffffffffffffffffffffffffffffffff1681565b828054600181600116156101000203166002900490600052602060002090601f016020900481019282601f1061038757805160ff19168380011785556103b5565b828001600101855582156103b5579182015b828111156103b4578251825591602001919060010190610399565b5b5090506103c291906103c6565b5090565b6103e891905b808211156103e45760008160009055506001016103cc565b5090565b905600a165627a7a723058204e5bc26559887d9bd78174239340b335405085fa13437903c808003fd0cada3d0029",
  "source": "pragma solidity ^0.4.19;\n\nimport \"contracts/Owned.sol\";\n\ncontract AppStore is Owned {\n\n\tstruct Product {\n\t\tstring name;\n\t\tuint price;\n\t}\n\n\tmapping(uint => Product) public products;\n\tuint public count;\n\n\tfunction  AppStore() public {\n\t}\n\n\n\tfunction addProduct(uint id, string name, uint price)\n\t\tfromOwner\n\t\tpublic\n\t\treturns (bool successful) {\n\t\tproducts[id] = Product({\n\t\t\tname: name,\n\t\t\tprice: price\n\t\t\t});\n\t\tcount++;\n\t\treturn true;\n\n\t\t}\n\n}",
  "sourcePath": "/home/terenceyak/DAPPS/appstore/contracts/AppStore.sol",
  "compiler": {
    "name": "solc",
    "version": "0.4.19+commit.c4cbbb05.Emscripten.clang"
  },
  "schemaVersion": "2.0.0",
  "updatedAt": "2018-04-15T23:43:33.062Z"
}