{
  "contractName": "Splitter",
  "abi": [
    {
      "constant": true,
      "inputs": [
        {
          "name": "",
          "type": "address"
        }
      ],
      "name": "balances",
      "outputs": [
        {
          "name": "",
          "type": "uint256"
        }
      ],
      "payable": false,
      "stateMutability": "view",
      "type": "function"
    },
    {
      "constant": true,
      "inputs": [],
      "name": "owner",
      "outputs": [
        {
          "name": "",
          "type": "address"
        }
      ],
      "payable": false,
      "stateMutability": "view",
      "type": "function"
    },
    {
      "constant": false,
      "inputs": [
        {
          "name": "newOwner",
          "type": "address"
        }
      ],
      "name": "transferOwnership",
      "outputs": [],
      "payable": false,
      "stateMutability": "nonpayable",
      "type": "function"
    },
    {
      "anonymous": false,
      "inputs": [
        {
          "indexed": true,
          "name": "sender",
          "type": "address"
        },
        {
          "indexed": true,
          "name": "firstAddress",
          "type": "address"
        },
        {
          "indexed": true,
          "name": "secondAddress",
          "type": "address"
        },
        {
          "indexed": false,
          "name": "amount",
          "type": "uint256"
        }
      ],
      "name": "LogSplit",
      "type": "event"
    },
    {
      "anonymous": false,
      "inputs": [
        {
          "indexed": true,
          "name": "who",
          "type": "address"
        },
        {
          "indexed": false,
          "name": "amount",
          "type": "uint256"
        }
      ],
      "name": "LogWithdrawn",
      "type": "event"
    },
    {
      "anonymous": false,
      "inputs": [
        {
          "indexed": false,
          "name": "owner",
          "type": "address"
        },
        {
          "indexed": false,
          "name": "_killStatus",
          "type": "bool"
        }
      ],
      "name": "LogKill",
      "type": "event"
    },
    {
      "anonymous": false,
      "inputs": [
        {
          "indexed": true,
          "name": "previousOwner",
          "type": "address"
        },
        {
          "indexed": true,
          "name": "newOwner",
          "type": "address"
        }
      ],
      "name": "OwnershipTransferred",
      "type": "event"
    },
    {
      "constant": false,
      "inputs": [
        {
          "name": "_firstAddress",
          "type": "address"
        },
        {
          "name": "_secondAddress",
          "type": "address"
        }
      ],
      "name": "splitEther",
      "outputs": [],
      "payable": true,
      "stateMutability": "payable",
      "type": "function"
    },
    {
      "constant": false,
      "inputs": [],
      "name": "withdraw",
      "outputs": [],
      "payable": false,
      "stateMutability": "nonpayable",
      "type": "function"
    },
    {
      "constant": false,
      "inputs": [],
      "name": "kill",
      "outputs": [
        {
          "name": "_killStatus",
          "type": "bool"
        }
      ],
      "payable": false,
      "stateMutability": "nonpayable",
      "type": "function"
    }
  ],
  "bytecode": "0x60606040526000600460006101000a81548160ff021916908315150217905550336000806101000a81548173ffffffffffffffffffffffffffffffffffffffff021916908373ffffffffffffffffffffffffffffffffffffffff1602179055506106f68061006e6000396000f300606060405260043610610078576000357c0100000000000000000000000000000000000000000000000000000000900463ffffffff16806327e235e31461007d5780633ccfd60b146100ca57806341c0e1b5146100df57806369b08d7d1461010c5780638da5cb5b14610159578063f2fde38b146101ae575b600080fd5b341561008857600080fd5b6100b4600480803573ffffffffffffffffffffffffffffffffffffffff169060200190919050506101e7565b6040518082815260200191505060405180910390f35b34156100d557600080fd5b6100dd6101ff565b005b34156100ea57600080fd5b6100f2610328565b604051808215151515815260200191505060405180910390f35b610157600480803573ffffffffffffffffffffffffffffffffffffffff1690602001909190803573ffffffffffffffffffffffffffffffffffffffff169060200190919050506103c0565b005b341561016457600080fd5b61016c610550565b604051808273ffffffffffffffffffffffffffffffffffffffff1673ffffffffffffffffffffffffffffffffffffffff16815260200191505060405180910390f35b34156101b957600080fd5b6101e5600480803573ffffffffffffffffffffffffffffffffffffffff16906020019091905050610575565b005b60036020528060005260406000206000915090505481565b6000600360003373ffffffffffffffffffffffffffffffffffffffff1673ffffffffffffffffffffffffffffffffffffffff16815260200190815260200160002054905060008111151561025257600080fd5b6000600360003373ffffffffffffffffffffffffffffffffffffffff1673ffffffffffffffffffffffffffffffffffffffff168152602001908152602001600020819055503373ffffffffffffffffffffffffffffffffffffffff167fe0535c2eb3e1755a11a8ee1dba6e7b72ea1487e87be0d02fca7c1038eaacbd5c826040518082815260200191505060405180910390a23373ffffffffffffffffffffffffffffffffffffffff166108fc829081150290604051600060405180830381858888f19350505050151561032557600080fd5b50565b60008060009054906101000a900473ffffffffffffffffffffffffffffffffffffffff1673ffffffffffffffffffffffffffffffffffffffff163373ffffffffffffffffffffffffffffffffffffffff1614151561038557600080fd5b600160009054906101000a900473ffffffffffffffffffffffffffffffffffffffff1673ffffffffffffffffffffffffffffffffffffffff16ff5b60008273ffffffffffffffffffffffffffffffffffffffff16141515156103e657600080fd5b60008173ffffffffffffffffffffffffffffffffffffffff161415151561040c57600080fd5b60023481151561041857fe5b04600281905550600060025411151561043057600080fd5b600254600360008473ffffffffffffffffffffffffffffffffffffffff1673ffffffffffffffffffffffffffffffffffffffff168152602001908152602001600020600082825401925050819055506002543403600360008373ffffffffffffffffffffffffffffffffffffffff1673ffffffffffffffffffffffffffffffffffffffff168152602001908152602001600020600082825401925050819055508073ffffffffffffffffffffffffffffffffffffffff168273ffffffffffffffffffffffffffffffffffffffff163373ffffffffffffffffffffffffffffffffffffffff167f5861cc23de8cab7630160dc0ee2c1e9aa2a0f1498f73c387807c0100e6684da7346040518082815260200191505060405180910390a45050565b6000809054906101000a900473ffffffffffffffffffffffffffffffffffffffff1681565b6000809054906101000a900473ffffffffffffffffffffffffffffffffffffffff1673ffffffffffffffffffffffffffffffffffffffff163373ffffffffffffffffffffffffffffffffffffffff161415156105d057600080fd5b600073ffffffffffffffffffffffffffffffffffffffff168173ffffffffffffffffffffffffffffffffffffffff161415151561060c57600080fd5b8073ffffffffffffffffffffffffffffffffffffffff166000809054906101000a900473ffffffffffffffffffffffffffffffffffffffff1673ffffffffffffffffffffffffffffffffffffffff167f8be0079c531659141344cd1fd0a4f28419497f9722a3daafe3b4186f6b6457e060405160405180910390a3806000806101000a81548173ffffffffffffffffffffffffffffffffffffffff021916908373ffffffffffffffffffffffffffffffffffffffff160217905550505600a165627a7a72305820bc2d1d35bfe4ae9383a46399ea9c074545871e244b9295c06f6037ef6dd3fcee0029",
  "source": "pragma solidity ^0.4.19;\n\nimport \"./Ownable.sol\";\n\ncontract Splitter is Ownable{\n\n\taddress owner;\n\tuint256 sendAmount;\n\n\tmapping (address => uint) public balances;\n\n\tbool killStatus = false;\n\t\n\tevent LogSplit(address indexed sender,address indexed firstAddress, address indexed secondAddress, uint256 amount);\n\tevent LogWithdrawn(address indexed who, uint256 amount);\n\tevent LogKill(address owner, bool _killStatus);\n\n\t/*Split Ether*/\n\tfunction splitEther(address _firstAddress, address _secondAddress) public payable {\n\t\trequire(_firstAddress !=0);\n\t\trequire(_secondAddress !=0);\n\t\tsendAmount = msg.value/2;\n\t\trequire(sendAmount>0);\n\t\tbalances[_firstAddress]+= sendAmount;\n\t\tbalances[_secondAddress]+=msg.value-sendAmount;\n\t\tLogSplit(msg.sender,_firstAddress,_secondAddress,msg.value);\n\t}\n\n\t/*Allow address with balance on contract to withdraw their balance*/\n\tfunction withdraw() public {\n\t\tuint256 amount = balances[msg.sender];\n\t\trequire(amount >0);\n\t\tbalances[msg.sender]=0;\n\t\tLogWithdrawn(msg.sender, amount);\n\t\tmsg.sender.transfer(amount);\n\n\t}\n\n\t/*Destroys contract - only allowed by owner*/\n\tfunction kill() public onlyOwner returns (bool _killStatus){\n\t\tselfdestruct(owner);\n\t\tkillStatus=true;\n\t\tLogKill(owner, killStatus);\n\t\treturn killStatus;\n\t}\n\n}",
  "sourcePath": "/home/terenceyak/DAPPS/SolidityProjects/Project1-Splitter/contracts/Splitter.sol",
  "compiler": {
    "name": "solc",
    "version": "0.4.19+commit.c4cbbb05.Emscripten.clang"
  },
  "schemaVersion": "2.0.0",
  "updatedAt": "2018-03-15T21:13:40.032Z"
}