{
  "contractName": "Splitter",
  "abi": [
    {
      "inputs": [
        {
          "name": "bobAddress",
          "type": "address"
        },
        {
          "name": "carolAddress",
          "type": "address"
        }
      ],
      "payable": false,
      "stateMutability": "nonpayable",
      "type": "constructor"
    },
    {
      "constant": true,
      "inputs": [],
      "name": "contractBalance",
      "outputs": [
        {
          "name": "",
          "type": "uint256"
        }
      ],
      "payable": false,
      "stateMutability": "view",
      "type": "function"
    },
    {
      "constant": false,
      "inputs": [
        {
          "name": "toWhom",
          "type": "address"
        }
      ],
      "name": "sendWei",
      "outputs": [],
      "payable": false,
      "stateMutability": "nonpayable",
      "type": "function"
    },
    {
      "constant": false,
      "inputs": [],
      "name": "splitEther",
      "outputs": [],
      "payable": true,
      "stateMutability": "payable",
      "type": "function"
    }
  ],
  "bytecode": "0x6060604052341561000f57600080fd5b6040516040806102e083398101604052808051906020019091908051906020019091905050336000806101000a81548173ffffffffffffffffffffffffffffffffffffffff021916908373ffffffffffffffffffffffffffffffffffffffff16021790555081600260006101000a81548173ffffffffffffffffffffffffffffffffffffffff021916908373ffffffffffffffffffffffffffffffffffffffff16021790555080600360006101000a81548173ffffffffffffffffffffffffffffffffffffffff021916908373ffffffffffffffffffffffffffffffffffffffff16021790555050506101d9806101076000396000f300606060405260043610610057576000357c0100000000000000000000000000000000000000000000000000000000900463ffffffff168063148f2e5e1461005c578063502b31d2146100955780638b7afe2e1461009f575b600080fd5b341561006757600080fd5b610093600480803573ffffffffffffffffffffffffffffffffffffffff169060200190919050506100c8565b005b61009d61010d565b005b34156100aa57600080fd5b6100b261018e565b6040518082815260200191505060405180910390f35b8073ffffffffffffffffffffffffffffffffffffffff166108fc6001549081150290604051600060405180830381858888f19350505050151561010a57600080fd5b50565b600034141561011b57600080fd5b60023481151561012757fe5b04600181905550610159600260009054906101000a900473ffffffffffffffffffffffffffffffffffffffff166100c8565b610184600360009054906101000a900473ffffffffffffffffffffffffffffffffffffffff166100c8565b6000600181905550565b60003073ffffffffffffffffffffffffffffffffffffffff16319050905600a165627a7a7230582067b50a0e7dc4be6e1c20e5d615434f87562c9e66c242907586e71e725ae3b6d80029",
  "source": "pragma solidity ^0.4.19;\n\ncontract Splitter {\n\taddress owner;\n\tuint256 sendAmount;\n\t\n\taddress Bob;\n\taddress Carol;\n\t/*Executes on contract deployement*/\n\tfunction Splitter (address bobAddress, address carolAddress)  public {\n\t\towner = msg.sender;\n\t\tBob = bobAddress;\n\t\tCarol = carolAddress;\n\t}\n\n\t/*Get Contract Balance*/\n\tfunction contractBalance() public view returns (uint) {\n\t\treturn address(this).balance;\n\t}\n\n\tfunction  sendWei(address toWhom) public {\n\t\ttoWhom.transfer(sendAmount);\n\t}\n\n\t/*Split Ether*/\n\tfunction splitEther() public payable {\n\t\tif(msg.value==0) revert();\n\t\tsendAmount = msg.value/2;\n\t\tsendWei(Bob);\n\t\tsendWei(Carol);\n\t\tsendAmount = 0; //ensure people cannot sendWei \n\t\t//call sendfunction to two accounts\n\t}\n\n\t/*Allow Ether to be sent to contract*/\n\t//may not need since u just need splitEther to get eth and split\n\t//function() public payable {}\n}\n",
  "sourcePath": "/home/terenceyak/DAPPS/SolidityProjects/Project1-Splitter/contracts/Splitter.sol",
  "compiler": {
    "name": "solc",
    "version": "0.4.19+commit.c4cbbb05.Emscripten.clang"
  },
  "schemaVersion": "2.0.0",
  "updatedAt": "2018-03-15T13:50:33.909Z"
}