{
  "contractName": "Campaign",
  "abi": [
    {
      "constant": true,
      "inputs": [],
      "name": "refunded",
      "outputs": [
        {
          "name": "",
          "type": "uint256"
        }
      ],
      "payable": false,
      "stateMutability": "view",
      "type": "function"
    },
    {
      "constant": true,
      "inputs": [],
      "name": "deadline",
      "outputs": [
        {
          "name": "",
          "type": "uint256"
        }
      ],
      "payable": false,
      "stateMutability": "view",
      "type": "function"
    },
    {
      "constant": false,
      "inputs": [
        {
          "name": "onOff",
          "type": "bool"
        }
      ],
      "name": "runSwitch",
      "outputs": [
        {
          "name": "success",
          "type": "bool"
        }
      ],
      "payable": false,
      "stateMutability": "nonpayable",
      "type": "function"
    },
    {
      "constant": true,
      "inputs": [],
      "name": "goal",
      "outputs": [
        {
          "name": "",
          "type": "uint256"
        }
      ],
      "payable": false,
      "stateMutability": "view",
      "type": "function"
    },
    {
      "constant": true,
      "inputs": [],
      "name": "fundsRaised",
      "outputs": [
        {
          "name": "",
          "type": "uint256"
        }
      ],
      "payable": false,
      "stateMutability": "view",
      "type": "function"
    },
    {
      "constant": true,
      "inputs": [],
      "name": "sponsor",
      "outputs": [
        {
          "name": "",
          "type": "address"
        }
      ],
      "payable": false,
      "stateMutability": "view",
      "type": "function"
    },
    {
      "constant": true,
      "inputs": [
        {
          "name": "",
          "type": "address"
        }
      ],
      "name": "funderStructs",
      "outputs": [
        {
          "name": "amountContributed",
          "type": "uint256"
        },
        {
          "name": "amountRefunded",
          "type": "uint256"
        }
      ],
      "payable": false,
      "stateMutability": "view",
      "type": "function"
    },
    {
      "constant": true,
      "inputs": [],
      "name": "owner",
      "outputs": [
        {
          "name": "",
          "type": "address"
        }
      ],
      "payable": false,
      "stateMutability": "view",
      "type": "function"
    },
    {
      "constant": false,
      "inputs": [
        {
          "name": "newOwner",
          "type": "address"
        }
      ],
      "name": "changeOwner",
      "outputs": [
        {
          "name": "success",
          "type": "bool"
        }
      ],
      "payable": false,
      "stateMutability": "nonpayable",
      "type": "function"
    },
    {
      "constant": true,
      "inputs": [],
      "name": "running",
      "outputs": [
        {
          "name": "",
          "type": "bool"
        }
      ],
      "payable": false,
      "stateMutability": "view",
      "type": "function"
    },
    {
      "inputs": [
        {
          "name": "campaignSponsor",
          "type": "address"
        },
        {
          "name": "campaignDuration",
          "type": "uint256"
        },
        {
          "name": "campaignGoal",
          "type": "uint256"
        }
      ],
      "payable": false,
      "stateMutability": "nonpayable",
      "type": "constructor"
    },
    {
      "anonymous": false,
      "inputs": [
        {
          "indexed": false,
          "name": "sender",
          "type": "address"
        },
        {
          "indexed": false,
          "name": "amount",
          "type": "uint256"
        }
      ],
      "name": "LogContribution",
      "type": "event"
    },
    {
      "anonymous": false,
      "inputs": [
        {
          "indexed": false,
          "name": "funder",
          "type": "address"
        },
        {
          "indexed": false,
          "name": "amount",
          "type": "uint256"
        }
      ],
      "name": "LogRefundSent",
      "type": "event"
    },
    {
      "anonymous": false,
      "inputs": [
        {
          "indexed": false,
          "name": "beneficiary",
          "type": "address"
        },
        {
          "indexed": false,
          "name": "amount",
          "type": "uint256"
        }
      ],
      "name": "LogWithdrawal",
      "type": "event"
    },
    {
      "anonymous": false,
      "inputs": [
        {
          "indexed": false,
          "name": "sender",
          "type": "address"
        },
        {
          "indexed": false,
          "name": "switchSetting",
          "type": "bool"
        }
      ],
      "name": "LogRunSwitch",
      "type": "event"
    },
    {
      "anonymous": false,
      "inputs": [
        {
          "indexed": false,
          "name": "sender",
          "type": "address"
        },
        {
          "indexed": false,
          "name": "oldOwner",
          "type": "address"
        },
        {
          "indexed": false,
          "name": "newOwner",
          "type": "address"
        }
      ],
      "name": "LogNewOwner",
      "type": "event"
    },
    {
      "constant": true,
      "inputs": [],
      "name": "isSuccess",
      "outputs": [
        {
          "name": "isIndeed",
          "type": "bool"
        }
      ],
      "payable": false,
      "stateMutability": "view",
      "type": "function"
    },
    {
      "constant": true,
      "inputs": [],
      "name": "hasFailed",
      "outputs": [
        {
          "name": "hasIndeed",
          "type": "bool"
        }
      ],
      "payable": false,
      "stateMutability": "view",
      "type": "function"
    },
    {
      "constant": false,
      "inputs": [],
      "name": "contribute",
      "outputs": [
        {
          "name": "success",
          "type": "bool"
        }
      ],
      "payable": true,
      "stateMutability": "payable",
      "type": "function"
    },
    {
      "constant": false,
      "inputs": [],
      "name": "withdrawFunds",
      "outputs": [
        {
          "name": "success",
          "type": "bool"
        }
      ],
      "payable": false,
      "stateMutability": "nonpayable",
      "type": "function"
    },
    {
      "constant": false,
      "inputs": [],
      "name": "requestRefund",
      "outputs": [
        {
          "name": "success",
          "type": "bool"
        }
      ],
      "payable": false,
      "stateMutability": "nonpayable",
      "type": "function"
    }
  ],
  "bytecode": "0x6060604052341561000f57600080fd5b604051606080610d4383398101604052808051906020019091908051906020019091908051906020019091905050336000806101000a81548173ffffffffffffffffffffffffffffffffffffffff021916908373ffffffffffffffffffffffffffffffffffffffff1602179055506001600060146101000a81548160ff02191690831515021790555082600160006101000a81548173ffffffffffffffffffffffffffffffffffffffff021916908373ffffffffffffffffffffffffffffffffffffffff16021790555081430160028190555080600381905550505050610c48806100fb6000396000f3006060604052600436106100db576000357c0100000000000000000000000000000000000000000000000000000000900463ffffffff1680630b6c754b146100e057806312f539501461010d57806324600fc31461013657806329dcb0cf146101635780632dd970581461018c57806340193883146101c95780636681b9fd146101f2578063708b1fed1461021b57806377c93662146102485780638b3df4651461029d5780638da5cb5b146102f1578063a6f9dae114610346578063d5cef13314610397578063d7bb99ba146103c4578063d85bd526146103e6575b600080fd5b34156100eb57600080fd5b6100f3610413565b604051808215151515815260200191505060405180910390f35b341561011857600080fd5b610120610422565b6040518082815260200191505060405180910390f35b341561014157600080fd5b610149610428565b604051808215151515815260200191505060405180910390f35b341561016e57600080fd5b6101766105d5565b6040518082815260200191505060405180910390f35b341561019757600080fd5b6101af600480803515159060200190919050506105db565b604051808215151515815260200191505060405180910390f35b34156101d457600080fd5b6101dc6106ca565b6040518082815260200191505060405180910390f35b34156101fd57600080fd5b6102056106d0565b6040518082815260200191505060405180910390f35b341561022657600080fd5b61022e6106d6565b604051808215151515815260200191505060405180910390f35b341561025357600080fd5b61025b6106f1565b604051808273ffffffffffffffffffffffffffffffffffffffff1673ffffffffffffffffffffffffffffffffffffffff16815260200191505060405180910390f35b34156102a857600080fd5b6102d4600480803573ffffffffffffffffffffffffffffffffffffffff16906020019091905050610717565b604051808381526020018281526020019250505060405180910390f35b34156102fc57600080fd5b61030461073b565b604051808273ffffffffffffffffffffffffffffffffffffffff1673ffffffffffffffffffffffffffffffffffffffff16815260200191505060405180910390f35b341561035157600080fd5b61037d600480803573ffffffffffffffffffffffffffffffffffffffff16906020019091905050610760565b604051808215151515815260200191505060405180910390f35b34156103a257600080fd5b6103aa610918565b604051808215151515815260200191505060405180910390f35b6103cc610ae4565b604051808215151515815260200191505060405180910390f35b34156103f157600080fd5b6103f9610c09565b604051808215151515815260200191505060405180910390f35b60006003546004541015905090565b60055481565b600080600160009054906101000a900473ffffffffffffffffffffffffffffffffffffffff1673ffffffffffffffffffffffffffffffffffffffff163373ffffffffffffffffffffffffffffffffffffffff1614151561048757600080fd5b600060149054906101000a900460ff1615156104a257600080fd5b6104aa610413565b15156104b557600080fd5b3073ffffffffffffffffffffffffffffffffffffffff16319050806005600082825401925050819055507fb4214c8c54fc7442f36d3682f59aebaf09358a4431835b30efb29d52cf9e1e916000809054906101000a900473ffffffffffffffffffffffffffffffffffffffff1682604051808373ffffffffffffffffffffffffffffffffffffffff1673ffffffffffffffffffffffffffffffffffffffff1681526020018281526020019250505060405180910390a1600160009054906101000a900473ffffffffffffffffffffffffffffffffffffffff1673ffffffffffffffffffffffffffffffffffffffff166108fc829081150290604051600060405180830381858888f1935050505015156105cd57600080fd5b600191505090565b60025481565b60008060009054906101000a900473ffffffffffffffffffffffffffffffffffffffff1673ffffffffffffffffffffffffffffffffffffffff163373ffffffffffffffffffffffffffffffffffffffff1614151561063857600080fd5b81600060146101000a81548160ff0219169083151502179055507fe149139e745b87d23672d6d1bd3f9160008dc717a946188ef8c5155e4ee6b8453383604051808373ffffffffffffffffffffffffffffffffffffffff1673ffffffffffffffffffffffffffffffffffffffff168152602001821515151581526020019250505060405180910390a160019050919050565b60035481565b60045481565b60006003546004541080156106ec575060025443115b905090565b600160009054906101000a900473ffffffffffffffffffffffffffffffffffffffff1681565b60066020528060005260406000206000915090508060000154908060010154905082565b6000809054906101000a900473ffffffffffffffffffffffffffffffffffffffff1681565b60008060009054906101000a900473ffffffffffffffffffffffffffffffffffffffff1673ffffffffffffffffffffffffffffffffffffffff163373ffffffffffffffffffffffffffffffffffffffff161415156107bd57600080fd5b60008273ffffffffffffffffffffffffffffffffffffffff16141515156107e357600080fd5b7f95a4124b32fadd40e6e63088992a62e3505e61d1683b783d03e575d7c1dfb967336000809054906101000a900473ffffffffffffffffffffffffffffffffffffffff1684604051808473ffffffffffffffffffffffffffffffffffffffff1673ffffffffffffffffffffffffffffffffffffffff1681526020018373ffffffffffffffffffffffffffffffffffffffff1673ffffffffffffffffffffffffffffffffffffffff1681526020018273ffffffffffffffffffffffffffffffffffffffff1673ffffffffffffffffffffffffffffffffffffffff168152602001935050505060405180910390a1816000806101000a81548173ffffffffffffffffffffffffffffffffffffffff021916908373ffffffffffffffffffffffffffffffffffffffff16021790555060019050919050565b600080600060149054906101000a900460ff16151561093657600080fd5b600660003373ffffffffffffffffffffffffffffffffffffffff1673ffffffffffffffffffffffffffffffffffffffff16815260200190815260200160002060010154600660003373ffffffffffffffffffffffffffffffffffffffff1673ffffffffffffffffffffffffffffffffffffffff168152602001908152602001600020600001540390506000811115156109ce57600080fd5b6109d66106d6565b15156109e157600080fd5b80600660003373ffffffffffffffffffffffffffffffffffffffff1673ffffffffffffffffffffffffffffffffffffffff168152602001908152602001600020600101600082825401925050819055507fdd896e09a507baf21c108627cf41469f315fb779fe323f5e1c6154fd5d869e693382604051808373ffffffffffffffffffffffffffffffffffffffff1673ffffffffffffffffffffffffffffffffffffffff1681526020018281526020019250505060405180910390a13373ffffffffffffffffffffffffffffffffffffffff166108fc829081150290604051600060405180830381858888f193505050501515610adc57600080fd5b600191505090565b60008060149054906101000a900460ff161515610b0057600080fd5b600034111515610b0f57600080fd5b610b17610413565b151515610b2357600080fd5b610b2b6106d6565b151515610b3757600080fd5b3460046000828254019250508190555034600660003373ffffffffffffffffffffffffffffffffffffffff1673ffffffffffffffffffffffffffffffffffffffff168152602001908152602001600020600001600082825401925050819055507f370510fa7e8c74204b8d2fd52b7a0837e535ea0c1491fd4e13730ce825e405243334604051808373ffffffffffffffffffffffffffffffffffffffff1673ffffffffffffffffffffffffffffffffffffffff1681526020018281526020019250505060405180910390a16001905090565b600060149054906101000a900460ff16815600a165627a7a723058203674465d7f7fc51e5c30021b96d8c6fd92a6aa03558e53c56d4702e1847af6e80029",
  "source": "pragma solidity 0.4.19;\r\n\r\nimport \"./Stoppable.sol\";\r\n\r\ncontract Campaign is Stoppable {\r\n \r\n    address public sponsor;\r\n    uint    public deadline;\r\n    uint    public goal;\r\n    uint    public fundsRaised;\r\n    uint    public refunded;\r\n    \r\n    struct FunderStruct {\r\n        uint amountContributed;\r\n        uint amountRefunded;\r\n    }\r\n    \r\n    mapping (address => FunderStruct) public funderStructs;\r\n    \r\n    modifier onlySponsor { \r\n        require(msg.sender == sponsor);\r\n        _; \r\n    }\r\n    \r\n    event LogContribution(address sender, uint amount);\r\n    event LogRefundSent(address funder, uint amount);\r\n    event LogWithdrawal(address beneficiary, uint amount);\r\n    \r\n    function Campaign(address campaignSponsor, uint campaignDuration, uint campaignGoal) public {\r\n        sponsor = campaignSponsor;\r\n        deadline = block.number + campaignDuration;\r\n        goal = campaignGoal;\r\n    }\r\n    \r\n    function isSuccess()\r\n        public\r\n        constant\r\n        returns(bool isIndeed)\r\n    {\r\n        return(fundsRaised >= goal);\r\n    }\r\n    \r\n    function hasFailed()\r\n        public\r\n        constant\r\n        returns(bool hasIndeed)\r\n    {\r\n        return(fundsRaised < goal && block.number > deadline);\r\n    }\r\n    \r\n    function contribute() \r\n        public\r\n        onlyIfRunning\r\n        payable \r\n        returns(bool success) \r\n    {\r\n        require(msg.value > 0);\r\n        require(!isSuccess());\r\n        require(!hasFailed());\r\n        \r\n        fundsRaised += msg.value;\r\n        funderStructs[msg.sender].amountContributed += msg.value;\r\n        LogContribution(msg.sender, msg.value);\r\n        return true;\r\n    }\r\n    \r\n    function withdrawFunds() \r\n        public\r\n        onlySponsor\r\n        onlyIfRunning\r\n        returns(bool success) \r\n    {\r\n        require(isSuccess());\r\n        \r\n        uint amount = this.balance;\r\n        refunded += amount;\r\n        LogWithdrawal(owner, amount);\r\n        sponsor.transfer(amount);\r\n        return true;\r\n    }\r\n    \r\n    function requestRefund()\r\n        public\r\n        onlyIfRunning\r\n        returns(bool success) \r\n    {\r\n        uint amountOwed = funderStructs[msg.sender].amountContributed - funderStructs[msg.sender].amountRefunded;\r\n        require(amountOwed > 0);\r\n        require(hasFailed());\r\n        \r\n        funderStructs[msg.sender].amountRefunded += amountOwed;\r\n        LogRefundSent(msg.sender, amountOwed);\r\n        msg.sender.transfer(amountOwed);\r\n        return true;\r\n    }\r\n    \r\n}",
  "sourcePath": "/home/vagrant/DAPPS/SolidityProjects/fundraisingcampaignexample/contracts/Campaign.sol",
  "compiler": {
    "name": "solc",
    "version": "0.4.19+commit.c4cbbb05.Emscripten.clang"
  },
  "schemaVersion": "1.0.1",
  "updatedAt": "2018-05-17T14:41:02.681Z"
}