{
  "contractName": "Stoppable",
  "abi": [
    {
      "constant": true,
      "inputs": [],
      "name": "owner",
      "outputs": [
        {
          "name": "",
          "type": "address"
        }
      ],
      "payable": false,
      "stateMutability": "view",
      "type": "function"
    },
    {
      "constant": false,
      "inputs": [
        {
          "name": "newOwner",
          "type": "address"
        }
      ],
      "name": "changeOwner",
      "outputs": [
        {
          "name": "success",
          "type": "bool"
        }
      ],
      "payable": false,
      "stateMutability": "nonpayable",
      "type": "function"
    },
    {
      "constant": true,
      "inputs": [],
      "name": "running",
      "outputs": [
        {
          "name": "",
          "type": "bool"
        }
      ],
      "payable": false,
      "stateMutability": "view",
      "type": "function"
    },
    {
      "inputs": [],
      "payable": false,
      "stateMutability": "nonpayable",
      "type": "constructor"
    },
    {
      "anonymous": false,
      "inputs": [
        {
          "indexed": false,
          "name": "sender",
          "type": "address"
        },
        {
          "indexed": false,
          "name": "switchSetting",
          "type": "bool"
        }
      ],
      "name": "LogRunSwitch",
      "type": "event"
    },
    {
      "anonymous": false,
      "inputs": [
        {
          "indexed": false,
          "name": "sender",
          "type": "address"
        },
        {
          "indexed": false,
          "name": "oldOwner",
          "type": "address"
        },
        {
          "indexed": false,
          "name": "newOwner",
          "type": "address"
        }
      ],
      "name": "LogNewOwner",
      "type": "event"
    },
    {
      "constant": false,
      "inputs": [
        {
          "name": "onOff",
          "type": "bool"
        }
      ],
      "name": "runSwitch",
      "outputs": [
        {
          "name": "success",
          "type": "bool"
        }
      ],
      "payable": false,
      "stateMutability": "nonpayable",
      "type": "function"
    }
  ],
  "bytecode": "0x6060604052341561000f57600080fd5b336000806101000a81548173ffffffffffffffffffffffffffffffffffffffff021916908373ffffffffffffffffffffffffffffffffffffffff1602179055506001600060146101000a81548160ff021916908315150217905550610482806100796000396000f300606060405260043610610062576000357c0100000000000000000000000000000000000000000000000000000000900463ffffffff1680632dd97058146100675780638da5cb5b146100a4578063a6f9dae1146100f9578063d85bd5261461014a575b600080fd5b341561007257600080fd5b61008a60048080351515906020019091905050610177565b604051808215151515815260200191505060405180910390f35b34156100af57600080fd5b6100b7610266565b604051808273ffffffffffffffffffffffffffffffffffffffff1673ffffffffffffffffffffffffffffffffffffffff16815260200191505060405180910390f35b341561010457600080fd5b610130600480803573ffffffffffffffffffffffffffffffffffffffff1690602001909190505061028b565b604051808215151515815260200191505060405180910390f35b341561015557600080fd5b61015d610443565b604051808215151515815260200191505060405180910390f35b60008060009054906101000a900473ffffffffffffffffffffffffffffffffffffffff1673ffffffffffffffffffffffffffffffffffffffff163373ffffffffffffffffffffffffffffffffffffffff161415156101d457600080fd5b81600060146101000a81548160ff0219169083151502179055507fe149139e745b87d23672d6d1bd3f9160008dc717a946188ef8c5155e4ee6b8453383604051808373ffffffffffffffffffffffffffffffffffffffff1673ffffffffffffffffffffffffffffffffffffffff168152602001821515151581526020019250505060405180910390a160019050919050565b6000809054906101000a900473ffffffffffffffffffffffffffffffffffffffff1681565b60008060009054906101000a900473ffffffffffffffffffffffffffffffffffffffff1673ffffffffffffffffffffffffffffffffffffffff163373ffffffffffffffffffffffffffffffffffffffff161415156102e857600080fd5b60008273ffffffffffffffffffffffffffffffffffffffff161415151561030e57600080fd5b7f95a4124b32fadd40e6e63088992a62e3505e61d1683b783d03e575d7c1dfb967336000809054906101000a900473ffffffffffffffffffffffffffffffffffffffff1684604051808473ffffffffffffffffffffffffffffffffffffffff1673ffffffffffffffffffffffffffffffffffffffff1681526020018373ffffffffffffffffffffffffffffffffffffffff1673ffffffffffffffffffffffffffffffffffffffff1681526020018273ffffffffffffffffffffffffffffffffffffffff1673ffffffffffffffffffffffffffffffffffffffff168152602001935050505060405180910390a1816000806101000a81548173ffffffffffffffffffffffffffffffffffffffff021916908373ffffffffffffffffffffffffffffffffffffffff16021790555060019050919050565b600060149054906101000a900460ff16815600a165627a7a72305820c70f114bd9dd25a8ccf2ba170cb61b884ea178125a315d2dc0c924dc11d174e90029",
  "source": "pragma solidity 0.4.19;\r\n\r\nimport \"./Owned.sol\";\r\n\r\ncontract Stoppable is Owned {\r\n    \r\n    bool public running;\r\n    \r\n    event LogRunSwitch(address sender, bool switchSetting);\r\n        \r\n    modifier onlyIfRunning { \r\n        require(running); \r\n        _;\r\n    }\r\n        \r\n    function Stoppable() public {\r\n        running = true;\r\n    }\r\n        \r\n    function runSwitch(bool onOff)\r\n        public\r\n        onlyOwner\r\n        returns(bool success)\r\n    {\r\n        running = onOff;\r\n        LogRunSwitch(msg.sender, onOff);\r\n        return true;\r\n    }\r\n        \r\n}",
  "sourcePath": "/home/vagrant/DAPPS/SolidityProjects/fundraisingcampaignexample/contracts/Stoppable.sol",
  "compiler": {
    "name": "solc",
    "version": "0.4.19+commit.c4cbbb05.Emscripten.clang"
  },
  "schemaVersion": "1.0.1",
  "updatedAt": "2018-05-17T00:00:11.549Z"
}